S01300006C63642070726F6A6563742E73726563C7
S11300000C942A000C9434000C9434000C943400A6
S11300100C9434000C9434000C9434000C9434008C
S11300200C9434000C9434000C9434000C9434007C
S11300300C9434000C9434000C9434000C9434006C
S11300400C9434000C9434000C9434000C9434005C
S11300500C94340011241FBECFE5D8E0DEBFCDBF21
S11300600E9495000C94AA000C94000092B39F7017
S1130070282F207F922B92BB98B398BBC19A2FEF65
S113008030E792E0215030409040E1F700C000009A
S1130090C1982FEF31EE94E0215030409040E1F7C9
S11300A000C0000022B32F7030E1839FC0011124EF
S11300B0822B82BBC19A8FEF90E722E0815090405F
S11300C02040E1F700C00000C198089592B39F70EA
S11300D0282F207F922B92BBC09AC19A2FEF30E732
S11300E092E0215030409040E1F700C00000C198F8
S11300F02FEF31EE94E0215030409040E1F700C002
S1130100000022B32F7030E1839FC0011124822BA1
S113011082BBC19A8FEF90E722E08150904020404B
S1130120E1F700C00000C19808958FEF87BB81BB41
S113013081E00E94360082E00E94360088E20E943C
S113014036008CE00E94360084E40E94660080E061
S10B015090E00895F894FFCF3C
S9030000FC
