S01900006C63642070726F6A65637420342D6269742E7372656301
S11300000C942A000C9434000C9434000C943400A6
S11300100C9434000C9434000C9434000C9434008C
S11300200C9434000C9434000C9434000C9434007C
S11300300C9434000C9434000C9434000C9434006C
S11300400C9434000C9434000C9434000C9434005C
S11300500C94340011241FBECFE5D8E0DEBFCDBF21
S11300600E9457000C9478000C94000098B398BB3D
S113007098B398BBC29A82BB2FEF80E792E02150DD
S113008080409040E1F700C00000C2980895C09AF3
S113009098B398BBC29A82BB2FEF80E792E02150BD
S11300A080409040E1F700C00000C29808958FEFAF
S11300B087BB81BB81E00E94360088E30E94360042
S11300C08CE00E9436002FEF80E792E021508040C0
S11300D09040E1F700C0000089E50E9447008FE4EA
S11300E00E94470081E20E94470080E090E008956A
S10700F0F894FFCFAE
S9030000FC
