:100000000C942A000C9434000C9434000C943400AA
:100010000C9434000C9434000C9434000C94340090
:100020000C9434000C9434000C9434000C94340080
:100030000C9434000C9434000C9434000C94340070
:100040000C9434000C9434000C9434000C94340060
:100050000C94340011241FBECFE5D8E0DEBFCDBF25
:100060000E9470000C9482000C94000098B392607F
:1000700098BB98B3916098BB95B3907F282F2F7051
:10008000922B95BB2FEF30E792E02150304090400B
:10009000E1F700C0000095B39F70892B85BB88B342
:1000A0008E7F88BB089598B3926098BB98B3916097
:1000B00098BB95B3907F282F2F70922B95BB2FEF75
:1000C00030E792E0215030409040E1F700C000005E
:1000D00095B39F70892B85BB88B38E7F88BB0895AD
:1000E0008FEF87BB84BB81E00E94360088E20E94CC
:1000F00036008CE00E94360083E40E94530080E0CA
:0801000090E00895F894FFCF90
:00000001FF
